{
  "_format": "hh-sol-artifact-1",
  "contractName": "LandRegistration1155",
  "sourceName": "contracts/land.sol",
  "abi": [
    {
      "inputs": [
        {
          "internalType": "string",
          "name": "defaultURI",
          "type": "string"
        }
      ],
      "stateMutability": "nonpayable",
      "type": "constructor"
    },
    {
      "inputs": [],
      "name": "AccessControlBadConfirmation",
      "type": "error"
    },
    {
      "inputs": [
        {
          "internalType": "address",
          "name": "account",
          "type": "address"
        },
        {
          "internalType": "bytes32",
          "name": "neededRole",
          "type": "bytes32"
        }
      ],
      "name": "AccessControlUnauthorizedAccount",
      "type": "error"
    },
    {
      "inputs": [
        {
          "internalType": "address",
          "name": "sender",
          "type": "address"
        },
        {
          "internalType": "uint256",
          "name": "balance",
          "type": "uint256"
        },
        {
          "internalType": "uint256",
          "name": "needed",
          "type": "uint256"
        },
        {
          "internalType": "uint256",
          "name": "tokenId",
          "type": "uint256"
        }
      ],
      "name": "ERC1155InsufficientBalance",
      "type": "error"
    },
    {
      "inputs": [
        {
          "internalType": "address",
          "name": "approver",
          "type": "address"
        }
      ],
      "name": "ERC1155InvalidApprover",
      "type": "error"
    },
    {
      "inputs": [
        {
          "internalType": "uint256",
          "name": "idsLength",
          "type": "uint256"
        },
        {
          "internalType": "uint256",
          "name": "valuesLength",
          "type": "uint256"
        }
      ],
      "name": "ERC1155InvalidArrayLength",
      "type": "error"
    },
    {
      "inputs": [
        {
          "internalType": "address",
          "name": "operator",
          "type": "address"
        }
      ],
      "name": "ERC1155InvalidOperator",
      "type": "error"
    },
    {
      "inputs": [
        {
          "internalType": "address",
          "name": "receiver",
          "type": "address"
        }
      ],
      "name": "ERC1155InvalidReceiver",
      "type": "error"
    },
    {
      "inputs": [
        {
          "internalType": "address",
          "name": "sender",
          "type": "address"
        }
      ],
      "name": "ERC1155InvalidSender",
      "type": "error"
    },
    {
      "inputs": [
        {
          "internalType": "address",
          "name": "operator",
          "type": "address"
        },
        {
          "internalType": "address",
          "name": "owner",
          "type": "address"
        }
      ],
      "name": "ERC1155MissingApprovalForAll",
      "type": "error"
    },
    {
      "anonymous": false,
      "inputs": [
        {
          "indexed": true,
          "internalType": "address",
          "name": "account",
          "type": "address"
        },
        {
          "indexed": true,
          "internalType": "address",
          "name": "operator",
          "type": "address"
        },
        {
          "indexed": false,
          "internalType": "bool",
          "name": "approved",
          "type": "bool"
        }
      ],
      "name": "ApprovalForAll",
      "type": "event"
    },
    {
      "anonymous": false,
      "inputs": [
        {
          "indexed": true,
          "internalType": "address",
          "name": "user",
          "type": "address"
        }
      ],
      "name": "AutoRolesGranted",
      "type": "event"
    },
    {
      "anonymous": false,
      "inputs": [
        {
          "indexed": true,
          "internalType": "uint256",
          "name": "landId",
          "type": "uint256"
        },
        {
          "indexed": false,
          "internalType": "uint256",
          "name": "shares",
          "type": "uint256"
        },
        {
          "indexed": false,
          "internalType": "uint256",
          "name": "pricePerShare",
          "type": "uint256"
        }
      ],
      "name": "LandFractionalised",
      "type": "event"
    },
    {
      "anonymous": false,
      "inputs": [
        {
          "indexed": true,
          "internalType": "uint256",
          "name": "landId",
          "type": "uint256"
        },
        {
          "indexed": true,
          "internalType": "address",
          "name": "owner",
          "type": "address"
        }
      ],
      "name": "LandRegistered",
      "type": "event"
    },
    {
      "anonymous": false,
      "inputs": [
        {
          "indexed": true,
          "internalType": "address",
          "name": "buyer",
          "type": "address"
        },
        {
          "indexed": true,
          "internalType": "address",
          "name": "seller",
          "type": "address"
        },
        {
          "indexed": false,
          "internalType": "uint256",
          "name": "totalTransactions",
          "type": "uint256"
        }
      ],
      "name": "PairFlagged",
      "type": "event"
    },
    {
      "anonymous": false,
      "inputs": [
        {
          "indexed": true,
          "internalType": "bytes32",
          "name": "role",
          "type": "bytes32"
        },
        {
          "indexed": true,
          "internalType": "bytes32",
          "name": "previousAdminRole",
          "type": "bytes32"
        },
        {
          "indexed": true,
          "internalType": "bytes32",
          "name": "newAdminRole",
          "type": "bytes32"
        }
      ],
      "name": "RoleAdminChanged",
      "type": "event"
    },
    {
      "anonymous": false,
      "inputs": [
        {
          "indexed": true,
          "internalType": "bytes32",
          "name": "role",
          "type": "bytes32"
        },
        {
          "indexed": true,
          "internalType": "address",
          "name": "account",
          "type": "address"
        },
        {
          "indexed": true,
          "internalType": "address",
          "name": "sender",
          "type": "address"
        }
      ],
      "name": "RoleGranted",
      "type": "event"
    },
    {
      "anonymous": false,
      "inputs": [
        {
          "indexed": true,
          "internalType": "bytes32",
          "name": "role",
          "type": "bytes32"
        },
        {
          "indexed": true,
          "internalType": "address",
          "name": "account",
          "type": "address"
        },
        {
          "indexed": true,
          "internalType": "address",
          "name": "sender",
          "type": "address"
        }
      ],
      "name": "RoleRevoked",
      "type": "event"
    },
    {
      "anonymous": false,
      "inputs": [
        {
          "indexed": true,
          "internalType": "uint256",
          "name": "landId",
          "type": "uint256"
        },
        {
          "indexed": true,
          "internalType": "address",
          "name": "buyer",
          "type": "address"
        },
        {
          "indexed": false,
          "internalType": "uint256",
          "name": "amount",
          "type": "uint256"
        }
      ],
      "name": "SharesPurchased",
      "type": "event"
    },
    {
      "anonymous": false,
      "inputs": [
        {
          "indexed": true,
          "internalType": "address",
          "name": "buyer",
          "type": "address"
        },
        {
          "indexed": true,
          "internalType": "address",
          "name": "seller",
          "type": "address"
        },
        {
          "indexed": false,
          "internalType": "uint256",
          "name": "transactionCount",
          "type": "uint256"
        },
        {
          "indexed": true,
          "internalType": "uint256",
          "name": "landId",
          "type": "uint256"
        }
      ],
      "name": "SuspiciousActivity",
      "type": "event"
    },
    {
      "anonymous": false,
      "inputs": [
        {
          "indexed": true,
          "internalType": "address",
          "name": "operator",
          "type": "address"
        },
        {
          "indexed": true,
          "internalType": "address",
          "name": "from",
          "type": "address"
        },
        {
          "indexed": true,
          "internalType": "address",
          "name": "to",
          "type": "address"
        },
        {
          "indexed": false,
          "internalType": "uint256[]",
          "name": "ids",
          "type": "uint256[]"
        },
        {
          "indexed": false,
          "internalType": "uint256[]",
          "name": "values",
          "type": "uint256[]"
        }
      ],
      "name": "TransferBatch",
      "type": "event"
    },
    {
      "anonymous": false,
      "inputs": [
        {
          "indexed": true,
          "internalType": "address",
          "name": "operator",
          "type": "address"
        },
        {
          "indexed": true,
          "internalType": "address",
          "name": "from",
          "type": "address"
        },
        {
          "indexed": true,
          "internalType": "address",
          "name": "to",
          "type": "address"
        },
        {
          "indexed": false,
          "internalType": "uint256",
          "name": "id",
          "type": "uint256"
        },
        {
          "indexed": false,
          "internalType": "uint256",
          "name": "value",
          "type": "uint256"
        }
      ],
      "name": "TransferSingle",
      "type": "event"
    },
    {
      "anonymous": false,
      "inputs": [
        {
          "indexed": false,
          "internalType": "string",
          "name": "value",
          "type": "string"
        },
        {
          "indexed": true,
          "internalType": "uint256",
          "name": "id",
          "type": "uint256"
        }
      ],
      "name": "URI",
      "type": "event"
    },
    {
      "anonymous": false,
      "inputs": [
        {
          "indexed": true,
          "internalType": "uint256",
          "name": "landId",
          "type": "uint256"
        }
      ],
      "name": "WholeDelisted",
      "type": "event"
    },
    {
      "anonymous": false,
      "inputs": [
        {
          "indexed": true,
          "internalType": "uint256",
          "name": "landId",
          "type": "uint256"
        },
        {
          "indexed": false,
          "internalType": "uint256",
          "name": "priceWei",
          "type": "uint256"
        }
      ],
      "name": "WholeListed",
      "type": "event"
    },
    {
      "anonymous": false,
      "inputs": [
        {
          "indexed": true,
          "internalType": "uint256",
          "name": "landId",
          "type": "uint256"
        },
        {
          "indexed": true,
          "internalType": "address",
          "name": "buyer",
          "type": "address"
        },
        {
          "indexed": false,
          "internalType": "uint256",
          "name": "priceWei",
          "type": "uint256"
        }
      ],
      "name": "WholeSold",
      "type": "event"
    },
    {
      "inputs": [],
      "name": "BUYER_ROLE",
      "outputs": [
        {
          "internalType": "bytes32",
          "name": "",
          "type": "bytes32"
        }
      ],
      "stateMutability": "view",
      "type": "function"
    },
    {
      "inputs": [],
      "name": "DEFAULT_ADMIN_ROLE",
      "outputs": [
        {
          "internalType": "bytes32",
          "name": "",
          "type": "bytes32"
        }
      ],
      "stateMutability": "view",
      "type": "function"
    },
    {
      "inputs": [],
      "name": "FRAUD_THRESHOLD",
      "outputs": [
        {
          "internalType": "uint256",
          "name": "",
          "type": "uint256"
        }
      ],
      "stateMutability": "view",
      "type": "function"
    },
    {
      "inputs": [],
      "name": "SELLER_ROLE",
      "outputs": [
        {
          "internalType": "bytes32",
          "name": "",
          "type": "bytes32"
        }
      ],
      "stateMutability": "view",
      "type": "function"
    },
    {
      "inputs": [
        {
          "internalType": "address",
          "name": "account",
          "type": "address"
        },
        {
          "internalType": "uint256",
          "name": "id",
          "type": "uint256"
        }
      ],
      "name": "balanceOf",
      "outputs": [
        {
          "internalType": "uint256",
          "name": "",
          "type": "uint256"
        }
      ],
      "stateMutability": "view",
      "type": "function"
    },
    {
      "inputs": [
        {
          "internalType": "address[]",
          "name": "accounts",
          "type": "address[]"
        },
        {
          "internalType": "uint256[]",
          "name": "ids",
          "type": "uint256[]"
        }
      ],
      "name": "balanceOfBatch",
      "outputs": [
        {
          "internalType": "uint256[]",
          "name": "",
          "type": "uint256[]"
        }
      ],
      "stateMutability": "view",
      "type": "function"
    },
    {
      "inputs": [
        {
          "internalType": "uint256",
          "name": "id",
          "type": "uint256"
        },
        {
          "internalType": "uint256",
          "name": "amount",
          "type": "uint256"
        }
      ],
      "name": "buyShares",
      "outputs": [],
      "stateMutability": "payable",
      "type": "function"
    },
    {
      "inputs": [
        {
          "internalType": "uint256",
          "name": "id",
          "type": "uint256"
        }
      ],
      "name": "buyWhole",
      "outputs": [],
      "stateMutability": "payable",
      "type": "function"
    },
    {
      "inputs": [
        {
          "internalType": "uint256",
          "name": "id",
          "type": "uint256"
        }
      ],
      "name": "defragmentLand",
      "outputs": [],
      "stateMutability": "nonpayable",
      "type": "function"
    },
    {
      "inputs": [
        {
          "internalType": "uint256",
          "name": "id",
          "type": "uint256"
        }
      ],
      "name": "delistWhole",
      "outputs": [],
      "stateMutability": "nonpayable",
      "type": "function"
    },
    {
      "inputs": [
        {
          "internalType": "bytes32",
          "name": "",
          "type": "bytes32"
        }
      ],
      "name": "flaggedPairs",
      "outputs": [
        {
          "internalType": "bool",
          "name": "",
          "type": "bool"
        }
      ],
      "stateMutability": "view",
      "type": "function"
    },
    {
      "inputs": [
        {
          "internalType": "uint256",
          "name": "id",
          "type": "uint256"
        },
        {
          "internalType": "uint256",
          "name": "shares",
          "type": "uint256"
        },
        {
          "internalType": "uint256",
          "name": "pricePerShare",
          "type": "uint256"
        }
      ],
      "name": "fractionalise",
      "outputs": [],
      "stateMutability": "nonpayable",
      "type": "function"
    },
    {
      "inputs": [],
      "name": "getAllPropertyIds",
      "outputs": [
        {
          "internalType": "uint256[]",
          "name": "propertyIds",
          "type": "uint256[]"
        }
      ],
      "stateMutability": "view",
      "type": "function"
    },
    {
      "inputs": [
        {
          "internalType": "uint256",
          "name": "id",
          "type": "uint256"
        }
      ],
      "name": "getLandDetails",
      "outputs": [
        {
          "components": [
            {
              "internalType": "uint256",
              "name": "id",
              "type": "uint256"
            },
            {
              "internalType": "string",
              "name": "propertyAddress",
              "type": "string"
            },
            {
              "internalType": "uint256",
              "name": "totalLandArea",
              "type": "uint256"
            },
            {
              "internalType": "uint256",
              "name": "postalCode",
              "type": "uint256"
            },
            {
              "internalType": "string",
              "name": "propertyName",
              "type": "string"
            },
            {
              "internalType": "bool",
              "name": "isShared",
              "type": "bool"
            },
            {
              "internalType": "uint256",
              "name": "totalShares",
              "type": "uint256"
            },
            {
              "internalType": "uint256",
              "name": "pricePerShare",
              "type": "uint256"
            },
            {
              "internalType": "uint256",
              "name": "availableShares",
              "type": "uint256"
            },
            {
              "internalType": "address",
              "name": "originalOwner",
              "type": "address"
            },
            {
              "internalType": "bool",
              "name": "forSale",
              "type": "bool"
            },
            {
              "internalType": "uint256",
              "name": "wholePrice",
              "type": "uint256"
            }
          ],
          "internalType": "struct LandRegistration1155.Land",
          "name": "details",
          "type": "tuple"
        },
        {
          "internalType": "address",
          "name": "currentOwner",
          "type": "address"
        },
        {
          "internalType": "bool",
          "name": "isShared",
          "type": "bool"
        },
        {
          "internalType": "uint256",
          "name": "totalShares",
          "type": "uint256"
        },
        {
          "internalType": "uint256",
          "name": "availableShares",
          "type": "uint256"
        },
        {
          "internalType": "uint256",
          "name": "pricePerShare",
          "type": "uint256"
        }
      ],
      "stateMutability": "view",
      "type": "function"
    },
    {
      "inputs": [
        {
          "internalType": "address",
          "name": "owner",
          "type": "address"
        }
      ],
      "name": "getLandsByOwner",
      "outputs": [
        {
          "internalType": "uint256[]",
          "name": "ownedIds",
          "type": "uint256[]"
        }
      ],
      "stateMutability": "view",
      "type": "function"
    },
    {
      "inputs": [
        {
          "internalType": "uint256",
          "name": "id",
          "type": "uint256"
        }
      ],
      "name": "getMarketplaceDetails",
      "outputs": [
        {
          "internalType": "string",
          "name": "propertyAddress",
          "type": "string"
        },
        {
          "internalType": "uint256",
          "name": "totalLandArea",
          "type": "uint256"
        },
        {
          "internalType": "string",
          "name": "propertyName",
          "type": "string"
        },
        {
          "internalType": "bool",
          "name": "forSale",
          "type": "bool"
        },
        {
          "internalType": "uint256",
          "name": "wholePrice",
          "type": "uint256"
        },
        {
          "internalType": "bool",
          "name": "isShared",
          "type": "bool"
        },
        {
          "internalType": "uint256",
          "name": "totalShares",
          "type": "uint256"
        },
        {
          "internalType": "uint256",
          "name": "availableShares",
          "type": "uint256"
        },
        {
          "internalType": "uint256",
          "name": "pricePerShare",
          "type": "uint256"
        }
      ],
      "stateMutability": "view",
      "type": "function"
    },
    {
      "inputs": [],
      "name": "getPropertiesForSale",
      "outputs": [
        {
          "internalType": "uint256[]",
          "name": "forSaleIds",
          "type": "uint256[]"
        }
      ],
      "stateMutability": "view",
      "type": "function"
    },
    {
      "inputs": [
        {
          "internalType": "bytes32",
          "name": "role",
          "type": "bytes32"
        }
      ],
      "name": "getRoleAdmin",
      "outputs": [
        {
          "internalType": "bytes32",
          "name": "",
          "type": "bytes32"
        }
      ],
      "stateMutability": "view",
      "type": "function"
    },
    {
      "inputs": [],
      "name": "getTotalProperties",
      "outputs": [
        {
          "internalType": "uint256",
          "name": "",
          "type": "uint256"
        }
      ],
      "stateMutability": "view",
      "type": "function"
    },
    {
      "inputs": [
        {
          "internalType": "address",
          "name": "buyer",
          "type": "address"
        },
        {
          "internalType": "address",
          "name": "seller",
          "type": "address"
        }
      ],
      "name": "getTransactionCount",
      "outputs": [
        {
          "internalType": "uint256",
          "name": "",
          "type": "uint256"
        }
      ],
      "stateMutability": "view",
      "type": "function"
    },
    {
      "inputs": [
        {
          "internalType": "address",
          "name": "buyer",
          "type": "address"
        },
        {
          "internalType": "address",
          "name": "seller",
          "type": "address"
        }
      ],
      "name": "getTransactionHistory",
      "outputs": [
        {
          "internalType": "uint256[]",
          "name": "",
          "type": "uint256[]"
        }
      ],
      "stateMutability": "view",
      "type": "function"
    },
    {
      "inputs": [
        {
          "internalType": "address",
          "name": "user",
          "type": "address"
        }
      ],
      "name": "getUserRoles",
      "outputs": [
        {
          "internalType": "bool",
          "name": "isBuyer",
          "type": "bool"
        },
        {
          "internalType": "bool",
          "name": "isSeller",
          "type": "bool"
        },
        {
          "internalType": "bool",
          "name": "isAdmin",
          "type": "bool"
        }
      ],
      "stateMutability": "view",
      "type": "function"
    },
    {
      "inputs": [
        {
          "internalType": "bytes32",
          "name": "role",
          "type": "bytes32"
        },
        {
          "internalType": "address",
          "name": "account",
          "type": "address"
        }
      ],
      "name": "grantRole",
      "outputs": [],
      "stateMutability": "nonpayable",
      "type": "function"
    },
    {
      "inputs": [
        {
          "internalType": "address",
          "name": "user",
          "type": "address"
        }
      ],
      "name": "hasAutoRoles",
      "outputs": [
        {
          "internalType": "bool",
          "name": "",
          "type": "bool"
        }
      ],
      "stateMutability": "view",
      "type": "function"
    },
    {
      "inputs": [
        {
          "internalType": "address",
          "name": "",
          "type": "address"
        }
      ],
      "name": "hasReceivedAutoRoles",
      "outputs": [
        {
          "internalType": "bool",
          "name": "",
          "type": "bool"
        }
      ],
      "stateMutability": "view",
      "type": "function"
    },
    {
      "inputs": [
        {
          "internalType": "bytes32",
          "name": "role",
          "type": "bytes32"
        },
        {
          "internalType": "address",
          "name": "account",
          "type": "address"
        }
      ],
      "name": "hasRole",
      "outputs": [
        {
          "internalType": "bool",
          "name": "",
          "type": "bool"
        }
      ],
      "stateMutability": "view",
      "type": "function"
    },
    {
      "inputs": [
        {
          "internalType": "address",
          "name": "account",
          "type": "address"
        },
        {
          "internalType": "address",
          "name": "operator",
          "type": "address"
        }
      ],
      "name": "isApprovedForAll",
      "outputs": [
        {
          "internalType": "bool",
          "name": "",
          "type": "bool"
        }
      ],
      "stateMutability": "view",
      "type": "function"
    },
    {
      "inputs": [
        {
          "internalType": "address",
          "name": "buyer",
          "type": "address"
        },
        {
          "internalType": "address",
          "name": "seller",
          "type": "address"
        }
      ],
      "name": "isPairFlagged",
      "outputs": [
        {
          "internalType": "bool",
          "name": "",
          "type": "bool"
        }
      ],
      "stateMutability": "view",
      "type": "function"
    },
    {
      "inputs": [
        {
          "internalType": "uint256",
          "name": "",
          "type": "uint256"
        }
      ],
      "name": "lands",
      "outputs": [
        {
          "internalType": "uint256",
          "name": "id",
          "type": "uint256"
        },
        {
          "internalType": "string",
          "name": "propertyAddress",
          "type": "string"
        },
        {
          "internalType": "uint256",
          "name": "totalLandArea",
          "type": "uint256"
        },
        {
          "internalType": "uint256",
          "name": "postalCode",
          "type": "uint256"
        },
        {
          "internalType": "string",
          "name": "propertyName",
          "type": "string"
        },
        {
          "internalType": "bool",
          "name": "isShared",
          "type": "bool"
        },
        {
          "internalType": "uint256",
          "name": "totalShares",
          "type": "uint256"
        },
        {
          "internalType": "uint256",
          "name": "pricePerShare",
          "type": "uint256"
        },
        {
          "internalType": "uint256",
          "name": "availableShares",
          "type": "uint256"
        },
        {
          "internalType": "address",
          "name": "originalOwner",
          "type": "address"
        },
        {
          "internalType": "bool",
          "name": "forSale",
          "type": "bool"
        },
        {
          "internalType": "uint256",
          "name": "wholePrice",
          "type": "uint256"
        }
      ],
      "stateMutability": "view",
      "type": "function"
    },
    {
      "inputs": [
        {
          "internalType": "uint256",
          "name": "id",
          "type": "uint256"
        },
        {
          "internalType": "uint256",
          "name": "priceWei",
          "type": "uint256"
        }
      ],
      "name": "listWhole",
      "outputs": [],
      "stateMutability": "nonpayable",
      "type": "function"
    },
    {
      "inputs": [
        {
          "internalType": "address",
          "name": "account",
          "type": "address"
        },
        {
          "internalType": "uint256",
          "name": "id",
          "type": "uint256"
        }
      ],
      "name": "ownershipPercentage",
      "outputs": [
        {
          "internalType": "uint256",
          "name": "",
          "type": "uint256"
        }
      ],
      "stateMutability": "view",
      "type": "function"
    },
    {
      "inputs": [
        {
          "internalType": "string",
          "name": "addr",
          "type": "string"
        },
        {
          "internalType": "uint256",
          "name": "area",
          "type": "uint256"
        },
        {
          "internalType": "uint256",
          "name": "postal",
          "type": "uint256"
        },
        {
          "internalType": "string",
          "name": "name",
          "type": "string"
        }
      ],
      "name": "registerLand",
      "outputs": [
        {
          "internalType": "uint256",
          "name": "id",
          "type": "uint256"
        }
      ],
      "stateMutability": "nonpayable",
      "type": "function"
    },
    {
      "inputs": [
        {
          "internalType": "bytes32",
          "name": "role",
          "type": "bytes32"
        },
        {
          "internalType": "address",
          "name": "callerConfirmation",
          "type": "address"
        }
      ],
      "name": "renounceRole",
      "outputs": [],
      "stateMutability": "nonpayable",
      "type": "function"
    },
    {
      "inputs": [],
      "name": "requestAutoRoles",
      "outputs": [],
      "stateMutability": "nonpayable",
      "type": "function"
    },
    {
      "inputs": [
        {
          "internalType": "bytes32",
          "name": "role",
          "type": "bytes32"
        },
        {
          "internalType": "address",
          "name": "account",
          "type": "address"
        }
      ],
      "name": "revokeRole",
      "outputs": [],
      "stateMutability": "nonpayable",
      "type": "function"
    },
    {
      "inputs": [
        {
          "internalType": "address",
          "name": "from",
          "type": "address"
        },
        {
          "internalType": "address",
          "name": "to",
          "type": "address"
        },
        {
          "internalType": "uint256[]",
          "name": "ids",
          "type": "uint256[]"
        },
        {
          "internalType": "uint256[]",
          "name": "values",
          "type": "uint256[]"
        },
        {
          "internalType": "bytes",
          "name": "data",
          "type": "bytes"
        }
      ],
      "name": "safeBatchTransferFrom",
      "outputs": [],
      "stateMutability": "nonpayable",
      "type": "function"
    },
    {
      "inputs": [
        {
          "internalType": "address",
          "name": "from",
          "type": "address"
        },
        {
          "internalType": "address",
          "name": "to",
          "type": "address"
        },
        {
          "internalType": "uint256",
          "name": "id",
          "type": "uint256"
        },
        {
          "internalType": "uint256",
          "name": "value",
          "type": "uint256"
        },
        {
          "internalType": "bytes",
          "name": "data",
          "type": "bytes"
        }
      ],
      "name": "safeTransferFrom",
      "outputs": [],
      "stateMutability": "nonpayable",
      "type": "function"
    },
    {
      "inputs": [
        {
          "internalType": "address",
          "name": "operator",
          "type": "address"
        },
        {
          "internalType": "bool",
          "name": "approved",
          "type": "bool"
        }
      ],
      "name": "setApprovalForAll",
      "outputs": [],
      "stateMutability": "nonpayable",
      "type": "function"
    },
    {
      "inputs": [
        {
          "internalType": "address",
          "name": "buyer",
          "type": "address"
        },
        {
          "internalType": "address",
          "name": "seller",
          "type": "address"
        },
        {
          "internalType": "bool",
          "name": "flagged",
          "type": "bool"
        }
      ],
      "name": "setFlaggedPair",
      "outputs": [],
      "stateMutability": "nonpayable",
      "type": "function"
    },
    {
      "inputs": [
        {
          "internalType": "bytes4",
          "name": "interfaceId",
          "type": "bytes4"
        }
      ],
      "name": "supportsInterface",
      "outputs": [
        {
          "internalType": "bool",
          "name": "",
          "type": "bool"
        }
      ],
      "stateMutability": "view",
      "type": "function"
    },
    {
      "inputs": [
        {
          "internalType": "bytes32",
          "name": "",
          "type": "bytes32"
        }
      ],
      "name": "transactionCount",
      "outputs": [
        {
          "internalType": "uint256",
          "name": "",
          "type": "uint256"
        }
      ],
      "stateMutability": "view",
      "type": "function"
    },
    {
      "inputs": [
        {
          "internalType": "bytes32",
          "name": "",
          "type": "bytes32"
        },
        {
          "internalType": "uint256",
          "name": "",
          "type": "uint256"
        }
      ],
      "name": "transactionHistory",
      "outputs": [
        {
          "internalType": "uint256",
          "name": "",
          "type": "uint256"
        }
      ],
      "stateMutability": "view",
      "type": "function"
    },
    {
      "inputs": [
        {
          "internalType": "address",
          "name": "to",
          "type": "address"
        },
        {
          "internalType": "uint256",
          "name": "id",
          "type": "uint256"
        },
        {
          "internalType": "uint256",
          "name": "amount",
          "type": "uint256"
        }
      ],
      "name": "transferShares",
      "outputs": [],
      "stateMutability": "nonpayable",
      "type": "function"
    },
    {
      "inputs": [
        {
          "internalType": "uint256",
          "name": "",
          "type": "uint256"
        }
      ],
      "name": "uri",
      "outputs": [
        {
          "internalType": "string",
          "name": "",
          "type": "string"
        }
      ],
      "stateMutability": "view",
      "type": "function"
    }
  ],
  "bytecode": "0x608060405260016008553480156200001657600080fd5b50604051620048bb380380620048bb833981016040819052620000399162000136565b8062000045816200005b565b50620000536000336200006d565b505062000366565b60026200006982826200029a565b5050565b60008281526003602090815260408083206001600160a01b038516845290915281205460ff16620001165760008381526003602090815260408083206001600160a01b03861684529091529020805460ff19166001179055620000cd3390565b6001600160a01b0316826001600160a01b0316847f2f8788117e7eff1d82e926ec794901d17c78024a50270940304540a733656f0d60405160405180910390a45060016200011a565b5060005b92915050565b634e487b7160e01b600052604160045260246000fd5b600060208083850312156200014a57600080fd5b82516001600160401b03808211156200016257600080fd5b818501915085601f8301126200017757600080fd5b8151818111156200018c576200018c62000120565b604051601f8201601f19908116603f01168101908382118183101715620001b757620001b762000120565b816040528281528886848701011115620001d057600080fd5b600093505b82841015620001f45784840186015181850187015292850192620001d5565b600086848301015280965050505050505092915050565b600181811c908216806200022057607f821691505b6020821081036200024157634e487b7160e01b600052602260045260246000fd5b50919050565b601f8211156200029557600081815260208120601f850160051c81016020861015620002705750805b601f850160051c820191505b8181101562000291578281556001016200027c565b5050505b505050565b81516001600160401b03811115620002b657620002b662000120565b620002ce81620002c784546200020b565b8462000247565b602080601f831160018114620003065760008415620002ed5750858301515b600019600386901b1c1916600185901b17855562000291565b600085815260208120601f198616915b82811015620003375788860151825594840194600190910190840162000316565b5085821015620003565787850151600019600388901b60f8161c191681555b5050505050600190811b01905550565b61454580620003766000396000f3fe6080604052600436106102665760003560e01c80639ca95f8311610144578063d547741f116100b6578063e985e9c51161007a578063e985e9c514610794578063e99cf2c6146107b4578063f2211978146107d4578063f242432a14610804578063f665fc4214610824578063fe0cb7dc1461085457600080fd5b8063d547741f146106e5578063da56564714610705578063dbb6948a1461071a578063dbe4613d1461073a578063e261f1e51461075c57600080fd5b8063bdc99a3311610108578063bdc99a331461063d578063be5d754c1461065d578063beebc5da1461068a578063c3c53aa21461069d578063c4a557a7146106b2578063d52feffd146106c557600080fd5b80639ca95f831461057a5780639dda17411461059a578063a217fddf146105d3578063a22cb465146105e8578063ab2b41801461060857600080fd5b80632f2ff15d116101dd5780634ff69e83116101a15780634ff69e83146104c35780635ac38ae8146104d8578063768d0a14146104f85780637a01a1da1461051857806391d148541461053a5780639b5715c51461055a57600080fd5b80632f2ff15d1461042e57806336568abe1461044e578063455b9d231461046e578063480777b11461048e5780634e1273f4146104a357600080fd5b80630e89341c1161022f5780630e89341c1461034d57806315da4e391461037a57806317aaf5ed146103a75780631805f951146103bc578063248a9ca3146103dc5780632eb2c2d61461040c57600080fd5b8062fdd58e1461026b57806301ffc9a71461029e57806305682642146102ce57806305b952da146102ee57806306a36aee1461030e575b600080fd5b34801561027757600080fd5b5061028b6102863660046138e9565b610886565b6040519081526020015b60405180910390f35b3480156102aa57600080fd5b506102be6102b9366004613929565b6108ae565b6040519015158152602001610295565b3480156102da57600080fd5b5061028b6102e9366004613995565b6108b9565b3480156102fa57600080fd5b5061028b6103093660046138e9565b610bf5565b34801561031a57600080fd5b5061032e610329366004613a17565b610e19565b6040805193151584529115156020840152151590820152606001610295565b34801561035957600080fd5b5061036d610368366004613a32565b610e66565b6040516102959190613a91565b34801561038657600080fd5b5061039a610395366004613aa4565b610efa565b6040516102959190613b12565b3480156103b357600080fd5b5061028b610f7a565b3480156103c857600080fd5b5061028b6103d7366004613aa4565b610f90565b3480156103e857600080fd5b5061028b6103f7366004613a32565b60009081526003602052604090206001015490565b34801561041857600080fd5b5061042c610427366004613c68565b610fb4565b005b34801561043a57600080fd5b5061042c610449366004613d11565b61101b565b34801561045a57600080fd5b5061042c610469366004613d11565b611046565b34801561047a57600080fd5b5061039a610489366004613a17565b61107e565b34801561049a57600080fd5b5061039a6111d7565b3480156104af57600080fd5b5061039a6104be366004613d34565b61133e565b3480156104cf57600080fd5b5061039a611412565b3480156104e457600080fd5b5061042c6104f3366004613e03565b6114b8565b34801561050457600080fd5b5061042c610513366004613e46565b61155d565b34801561052457600080fd5b5061028b6000805160206144f083398151915281565b34801561054657600080fd5b506102be610555366004613d11565b6117be565b34801561056657600080fd5b5061042c610575366004613a32565b6117e9565b34801561058657600080fd5b506102be610595366004613aa4565b6119a0565b3480156105a657600080fd5b506102be6105b5366004613a17565b6001600160a01b031660009081526007602052604090205460ff1690565b3480156105df57600080fd5b5061028b600081565b3480156105f457600080fd5b5061042c610603366004613e72565b6119c7565b34801561061457600080fd5b50610628610623366004613a32565b6119d6565b60405161029599989796959493929190613e9c565b34801561064957600080fd5b5061042c610658366004613eff565b611c5f565b34801561066957600080fd5b5061028b610678366004613a32565b60046020526000908152604090205481565b61042c610698366004613eff565b611e4c565b3480156106a957600080fd5b5061028b600a81565b61042c6106c0366004613a32565b6121b5565b3480156106d157600080fd5b5061042c6106e0366004613a32565b612569565b3480156106f157600080fd5b5061042c610700366004613d11565b612729565b34801561071157600080fd5b5061042c61274e565b34801561072657600080fd5b5061028b610735366004613eff565b612860565b34801561074657600080fd5b5061028b6000805160206144b083398151915281565b34801561076857600080fd5b5061077c610777366004613a32565b612891565b6040516102959c9b9a99989796959493929190613f21565b3480156107a057600080fd5b506102be6107af366004613aa4565b612a0f565b3480156107c057600080fd5b5061042c6107cf366004613fa5565b612a3d565b3480156107e057600080fd5b506102be6107ef366004613a17565b60076020526000908152604090205460ff1681565b34801561081057600080fd5b5061042c61081f366004613fd8565b612b7a565b34801561083057600080fd5b506102be61083f366004613a32565b60056020526000908152604090205460ff1681565b34801561086057600080fd5b5061087461086f366004613a32565b612bd9565b6040516102959695949392919061403c565b6000818152602081815260408083206001600160a01b03861684529091529020545b92915050565b60006108a882612e7b565b60006108c581336117be565b1580156108e257503360009081526007602052604090205460ff16155b15610948576108ff6000805160206144f083398151915233612ea0565b506109186000805160206144b083398151915233612ea0565b5033600081815260076020526040808220805460ff19166001179055516000805160206144d08339815191529190a25b600087878787878760405160200161096596959493929190614141565b60408051601f1981840301815291815281516020928301206000818152600a90935291205490915060ff16156109e25760405162461bcd60e51b815260206004820152601b60248201527f70726f706572747920616c72656164792072656769737465726564000000000060448201526064015b60405180910390fd5b600880549060006109f283614186565b91905055915060405180610180016040528083815260200189898080601f016020809104026020016040519081016040528093929190818152602001838380828437600092019190915250505090825250602080820189905260408083018990528051601f8801839004830281018301909152868152606090920191908790879081908401838280828437600092018290525093855250505060208083018290526001604080850182905260608501849052608085018490523360a086015260c0850184905260e0909401839052868352600982529290912083518155908301519091820190610ae2908261421f565b50604082015160028201556060820151600382015560808201516004820190610b0b908261421f565b5060a082015160058201805491151560ff1992831617905560c0830151600683015560e0830151600783015561010083015160088301556101208301516009830180546101408601511515600160a01b026001600160a81b03199091166001600160a01b039093169290921791909117905561016090920151600a9182015560008381526020918252604080822080549094166001908117909455805192830190528152610bbd913391859190612f34565b604051339083907fcb4990052f95f6057496d19524f6c3163f50af9f33f2c15b092928e03414323e90600090a3509695505050505050565b60008181526009602052604081205482908203610c245760405162461bcd60e51b81526004016109d9906142de565b6000600960008581526020019081526020016000206040518061018001604052908160008201548152602001600182018054610c5f9061419f565b80601f0160208091040260200160405190810160405280929190818152602001828054610c8b9061419f565b8015610cd85780601f10610cad57610100808354040283529160200191610cd8565b820191906000526020600020905b815481529060010190602001808311610cbb57829003601f168201915b505050505081526020016002820154815260200160038201548152602001600482018054610d059061419f565b80601f0160208091040260200160405190810160405280929190818152602001828054610d319061419f565b8015610d7e5780601f10610d5357610100808354040283529160200191610d7e565b820191906000526020600020905b815481529060010190602001808311610d6157829003601f168201915b5050509183525050600582015460ff9081161515602083015260068301546040830152600783015460608301526008830154608083015260098301546001600160a01b03811660a0840152600160a01b900416151560c0820152600a9091015460e09091015290506000610df28686610886565b60c0830151909150610e0582606461430b565b610e0f9190614322565b9695505050505050565b6000806000610e366000805160206144f0833981519152856117be565b610e4e6000805160206144b0833981519152866117be565b610e596000876117be565b9250925092509193909250565b606060028054610e759061419f565b80601f0160208091040260200160405190810160405280929190818152602001828054610ea19061419f565b8015610eee5780601f10610ec357610100808354040283529160200191610eee565b820191906000526020600020905b815481529060010190602001808311610ed157829003601f168201915b50505050509050919050565b60606000610f0781612f91565b6000610f138585612f9e565b6000818152600660209081526040918290208054835181840281018401909452808452939450919290830182828015610f6b57602002820191906000526020600020905b815481526020019060010190808311610f57575b50505050509250505092915050565b60006001600854610f8b9190614344565b905090565b600080610f9d8484612f9e565b600090815260046020526040902054949350505050565b336001600160a01b0386168114801590610fd55750610fd38682612a0f565b155b156110065760405163711bec9160e11b81526001600160a01b038083166004830152871660248201526044016109d9565b611013868686868661302f565b505050505050565b60008281526003602052604090206001015461103681612f91565b6110408383612ea0565b50505050565b6001600160a01b038116331461106f5760405163334bd91960e11b815260040160405180910390fd5b611079828261308f565b505050565b6060600060016008546110919190614344565b90506000816001600160401b038111156110ad576110ad613b25565b6040519080825280602002602001820160405280156110d6578160200160208202803683370190505b509050600060015b8381116111355760006110f18783610886565b1115611123578083838151811061110a5761110a614357565b60209081029190910101528161111f81614186565b9250505b8061112d81614186565b9150506110de565b50806001600160401b0381111561114e5761114e613b25565b604051908082528060200260200182016040528015611177578160200160208202803683370190505b50935060005b818110156111ce5782818151811061119757611197614357565b60200260200101518582815181106111b1576111b1614357565b6020908102919091010152806111c681614186565b91505061117d565b50505050919050565b6060600060016008546111ea9190614344565b90506000816001600160401b0381111561120657611206613b25565b60405190808252806020026020018201604052801561122f578160200160208202803683370190505b509050600060015b83811161129e5760008181526009602081905260409091200154600160a01b900460ff161561128c578083838151811061127357611273614357565b60209081029190910101528161128881614186565b9250505b8061129681614186565b915050611237565b50806001600160401b038111156112b7576112b7613b25565b6040519080825280602002602001820160405280156112e0578160200160208202803683370190505b50935060005b818110156113375782818151811061130057611300614357565b602002602001015185828151811061131a5761131a614357565b60209081029190910101528061132f81614186565b9150506112e6565b5050505090565b6060815183511461136f5781518351604051635b05999160e01b8152600481019290925260248201526044016109d9565b600083516001600160401b0381111561138a5761138a613b25565b6040519080825280602002602001820160405280156113b3578160200160208202803683370190505b50905060005b845181101561140a576020808202860101516113dd90602080840287010151610886565b8282815181106113ef576113ef614357565b602090810291909101015261140381614186565b90506113b9565b509392505050565b6060600060016008546114259190614344565b90506000816001600160401b0381111561144157611441613b25565b60405190808252806020026020018201604052801561146a578160200160208202803683370190505b50905060015b8281116114b1578082611484600183614344565b8151811061149457611494614357565b6020908102919091010152806114a981614186565b915050611470565b5092915050565b60006114c381612f91565b60006114cf8585612f9e565b6000818152600560205260409020805460ff1916851580159190911790915590915061155657836001600160a01b0316856001600160a01b03167f9f4825431ffd388202348e210ce1ecf450b275d9c8c2c8d8a70316deb85a0e0f600460008581526020019081526020016000205460405161154d91815260200190565b60405180910390a35b5050505050565b60008381526009602052604081205484910361158b5760405162461bcd60e51b81526004016109d9906142de565b6115966000336117be565b1580156115b357503360009081526007602052604090205460ff16155b15611619576115d06000805160206144f083398151915233612ea0565b506115e96000805160206144b083398151915233612ea0565b5033600081815260076020526040808220805460ff19166001179055516000805160206144d08339815191529190a25b6000848152600960205260409020600581015460ff161561166d5760405162461bcd60e51b815260206004820152600e60248201526d185b1c9958591e481cda185c995960921b60448201526064016109d9565b6116773386610886565b6001146116b25760405162461bcd60e51b81526020600482015260096024820152683737ba1037bbb732b960b91b60448201526064016109d9565b600184116116ee5760405162461bcd60e51b81526020600482015260096024820152687368617265733c3d3160b81b60448201526064016109d9565b6000831161172e5760405162461bcd60e51b815260206004820152600d60248201526c070726963652f73686172653d3609c1b60448201526064016109d9565b61173a338660016130fc565b60058101805460ff1916600117905560068101849055600781018390556008810184905560408051602081019091526000815261177c90339087908790612f34565b604080518581526020810185905286917f7e9b89bc3e898e03858ace01fa7418b2744758d8149c8608c35d9a79aa2c8698910160405180910390a25050505050565b60009182526003602090815260408084206001600160a01b0393909316845291905290205460ff1690565b6000818152600960205260408120548291036118175760405162461bcd60e51b81526004016109d9906142de565b6118226000336117be565b15801561183f57503360009081526007602052604090205460ff16155b156118a55761185c6000805160206144f083398151915233612ea0565b506118756000805160206144b083398151915233612ea0565b5033600081815260076020526040808220805460ff19166001179055516000805160206144d08339815191529190a25b600082815260096020819052604090912090810154600160a01b900460ff166118fd5760405162461bcd60e51b815260206004820152600a6024820152691b9bdd081b1a5cdd195960b21b60448201526064016109d9565b6119073384610886565b6001148061191b575061191b6000336117be565b61195b5760405162461bcd60e51b81526020600482015260116024820152703737ba1037bbb732b910179030b236b4b760791b60448201526064016109d9565b60098101805460ff60a01b191690556000600a820181905560405184917fbfea3c412d8264c4aab9d24ac249d5741ba55ea09923e0490d72af0fdea8adaa91a2505050565b6000806119ad8484612f9e565b60009081526005602052604090205460ff16949350505050565b6119d2338383613164565b5050565b606060006060600080600080600080896009600082815260200190815260200160002060000154600003611a1c5760405162461bcd60e51b81526004016109d9906142de565b6000600960008d81526020019081526020016000206040518061018001604052908160008201548152602001600182018054611a579061419f565b80601f0160208091040260200160405190810160405280929190818152602001828054611a839061419f565b8015611ad05780601f10611aa557610100808354040283529160200191611ad0565b820191906000526020600020905b815481529060010190602001808311611ab357829003601f168201915b505050505081526020016002820154815260200160038201548152602001600482018054611afd9061419f565b80601f0160208091040260200160405190810160405280929190818152602001828054611b299061419f565b8015611b765780601f10611b4b57610100808354040283529160200191611b76565b820191906000526020600020905b815481529060010190602001808311611b5957829003601f168201915b505050505081526020016005820160009054906101000a900460ff161515151581526020016006820154815260200160078201548152602001600882015481526020016009820160009054906101000a90046001600160a01b03166001600160a01b03166001600160a01b031681526020016009820160149054906101000a900460ff16151515158152602001600a8201548152505090508060200151816040015182608001518361014001518461016001518560a001518660c001518761010001518860e001519a509a509a509a509a509a509a509a509a5050509193959799909294969850565b600082815260096020526040812054839103611c8d5760405162461bcd60e51b81526004016109d9906142de565b611c986000336117be565b158015611cb557503360009081526007602052604090205460ff16155b15611d1b57611cd26000805160206144f083398151915233612ea0565b50611ceb6000805160206144b083398151915233612ea0565b5033600081815260076020526040808220805460ff19166001179055516000805160206144d08339815191529190a25b6000838152600960205260409020600581015460ff1615611d6f5760405162461bcd60e51b815260206004820152600e60248201526d185b1c9958591e481cda185c995960921b60448201526064016109d9565b611d793385610886565b600114611db45760405162461bcd60e51b81526020600482015260096024820152683737ba1037bbb732b960b91b60448201526064016109d9565b60008311611dee5760405162461bcd60e51b8152602060048201526007602482015266070726963653d360cc1b60448201526064016109d9565b60098101805460ff60a01b1916600160a01b179055600a810183905560405184907f1fb8709aa93d0a5fbbee3612bd4b8f7895bac4537fff4b1f088f66408bc3c01f90611e3e9086815260200190565b60405180910390a250505050565b611e576000336117be565b158015611e7457503360009081526007602052604090205460ff16155b15611eda57611e916000805160206144f083398151915233612ea0565b50611eaa6000805160206144b083398151915233612ea0565b5033600081815260076020526040808220805460ff19166001179055516000805160206144d08339815191529190a25b611ef26000805160206144f0833981519152336117be565b80611f105750611f106000805160206144b0833981519152336117be565b80611f215750611f216000336117be565b611f5e5760405162461bcd60e51b815260206004820152600e60248201526d1b9bdd08185d5d1a1bdc9a5e995960921b60448201526064016109d9565b600082815260096020526040812054839103611f8c5760405162461bcd60e51b81526004016109d9906142de565b60008381526009602081905260408220015433916001600160a01b0390911690611fb68383612f9e565b60008181526005602052604090205490915060ff1615611fe85760405162461bcd60e51b81526004016109d99061436d565b6000868152600960205260409020600581015460ff16801561200e575085816008015410155b61204e5760405162461bcd60e51b81526020600482015260116024820152706e6f7420656e6f7567682073686172657360781b60448201526064016109d9565b6000816007015487612060919061430b565b905080341461209d5760405162461bcd60e51b81526020600482015260096024820152680eee4dedcce408aa8960bb1b60448201526064016109d9565b60098201546040516001600160a01b0390911690600090829084908381818185875af1925050503d80600081146120f0576040519150601f19603f3d011682016040523d82523d6000602084013e6120f5565b606091505b50509050806121315760405162461bcd60e51b81526020600482015260086024820152671155120819985a5b60c21b60448201526064016109d9565b61214d82338c8c604051806020016040528060008152506131fa565b888460080160008282546121619190614344565b90915550612172905033838c613288565b60405189815233908b907fd4a7a37d339805413b4085e0f8e0932dfb0a4f84f08f98a6e53673b5ee8eee159060200160405180910390a350505050505050505050565b6121c06000336117be565b1580156121dd57503360009081526007602052604090205460ff16155b15612243576121fa6000805160206144f083398151915233612ea0565b506122136000805160206144b083398151915233612ea0565b5033600081815260076020526040808220805460ff19166001179055516000805160206144d08339815191529190a25b61225b6000805160206144f0833981519152336117be565b8061227957506122796000805160206144b0833981519152336117be565b8061228a575061228a6000336117be565b6122c75760405162461bcd60e51b815260206004820152600e60248201526d1b9bdd08185d5d1a1bdc9a5e995960921b60448201526064016109d9565b6000818152600960205260408120548291036122f55760405162461bcd60e51b81526004016109d9906142de565b60008281526009602081905260408220015433916001600160a01b039091169061231f8383612f9e565b60008181526005602052604090205490915060ff16156123515760405162461bcd60e51b81526004016109d99061436d565b6000858152600960205260409020600581015460ff16156123a25760405162461bcd60e51b815260206004820152600b60248201526a1cda185c9959081b185b9960aa1b60448201526064016109d9565b6009810154600160a01b900460ff166123ec5760405162461bcd60e51b815260206004820152600c60248201526b6e6f7420666f722073616c6560a01b60448201526064016109d9565b80600a015434146124325760405162461bcd60e51b815260206004820152601060248201526f1ddc9bdb99c811551208185b5bdd5b9d60821b60448201526064016109d9565b60098101546040805160208101909152600081526001600160a01b039091169061246490829033908a906001906131fa565b6009820180546000600a85018190556001600160a81b031990911633179091556040516001600160a01b03831690349060006040518083038185875af1925050503d80600081146124d1576040519150601f19603f3d011682016040523d82523d6000602084013e6124d6565b606091505b505090508061251d5760405162461bcd60e51b8152602060048201526013602482015272115512081d1c985b9cd9995c8819985a5b1959606a1b60448201526064016109d9565b61252833838a613288565b604051348152339089907f9a19143148bf2965b659939b5634e281f32feeae0794e119cec8c68f6e12ee719060200160405180910390a35050505050505050565b6000818152600960205260408120548291036125975760405162461bcd60e51b81526004016109d9906142de565b6125a26000336117be565b1580156125bf57503360009081526007602052604090205460ff16155b15612625576125dc6000805160206144f083398151915233612ea0565b506125f56000805160206144b083398151915233612ea0565b5033600081815260076020526040808220805460ff19166001179055516000805160206144d08339815191529190a25b6000828152600960205260409020600581015460ff166126745760405162461bcd60e51b815260206004820152600a6024820152691b9bdd081cda185c995960b21b60448201526064016109d9565b80600601546126833385610886565b146126c25760405162461bcd60e51b815260206004820152600f60248201526e6e65656420616c6c2073686172657360881b60448201526064016109d9565b6126d1338483600601546130fc565b60058101805460ff19169055600160068201819055600060078301819055600883018190556009830180546001600160a01b031916339081179091556040805160208101909152918252611079929091869190612f34565b60008281526003602052604090206001015461274481612f91565b611040838361308f565b6127596000336117be565b156127a65760405162461bcd60e51b815260206004820152601d60248201527f41646d696e20646f65736e2774206e656564206175746f20726f6c657300000060448201526064016109d9565b3360009081526007602052604090205460ff16156127fe5760405162461bcd60e51b8152602060048201526015602482015274149bdb195cc8185b1c9958591e4819dc985b9d1959605a1b60448201526064016109d9565b6128166000805160206144f083398151915233612ea0565b5061282f6000805160206144b083398151915233612ea0565b5033600081815260076020526040808220805460ff19166001179055516000805160206144d08339815191529190a2565b6006602052816000526040600020818154811061287c57600080fd5b90600052602060002001600091509150505481565b600960205260009081526040902080546001820180549192916128b39061419f565b80601f01602080910402602001604051908101604052809291908181526020018280546128df9061419f565b801561292c5780601f106129015761010080835404028352916020019161292c565b820191906000526020600020905b81548152906001019060200180831161290f57829003601f168201915b50505050509080600201549080600301549080600401805461294d9061419f565b80601f01602080910402602001604051908101604052809291908181526020018280546129799061419f565b80156129c65780601f1061299b576101008083540402835291602001916129c6565b820191906000526020600020905b8154815290600101906020018083116129a957829003601f168201915b50505060058401546006850154600786015460088701546009880154600a90980154969760ff94851697939650919450926001600160a01b03821692600160a01b90920416908c565b6001600160a01b03918216600090815260016020908152604080832093909416825291909152205460ff1690565b612a486000336117be565b158015612a6557503360009081526007602052604090205460ff16155b15612acb57612a826000805160206144f083398151915233612ea0565b50612a9b6000805160206144b083398151915233612ea0565b5033600081815260076020526040808220805460ff19166001179055516000805160206144d08339815191529190a25b33836000612ad98383612f9e565b60008181526005602052604090205490915060ff1615612b0b5760405162461bcd60e51b81526004016109d99061436d565b60008581526009602052604090206005015460ff16612b5e5760405162461bcd60e51b815260206004820152600f60248201526e1b185b99081b9bdd081cda185c9959608a1b60448201526064016109d9565b61101333878787604051806020016040528060008152506131fa565b336001600160a01b0386168114801590612b9b5750612b998682612a0f565b155b15612bcc5760405163711bec9160e11b81526001600160a01b038083166004830152871660248201526044016109d9565b61101386868686866131fa565b612c4a604051806101800160405280600081526020016060815260200160008152602001600081526020016060815260200160001515815260200160008152602001600081526020016000815260200160006001600160a01b03168152602001600015158152602001600081525090565b600082815260096020526040812054819081908190819087908203612c815760405162461bcd60e51b81526004016109d9906142de565b6000600960008a81526020019081526020016000206040518061018001604052908160008201548152602001600182018054612cbc9061419f565b80601f0160208091040260200160405190810160405280929190818152602001828054612ce89061419f565b8015612d355780601f10612d0a57610100808354040283529160200191612d35565b820191906000526020600020905b815481529060010190602001808311612d1857829003601f168201915b505050505081526020016002820154815260200160038201548152602001600482018054612d629061419f565b80601f0160208091040260200160405190810160405280929190818152602001828054612d8e9061419f565b8015612ddb5780601f10612db057610100808354040283529160200191612ddb565b820191906000526020600020905b815481529060010190602001808311612dbe57829003601f168201915b5050509183525050600582015460ff9081161515602083015260068301546040830152600783015460608301526008830154608083015260098301546001600160a01b03811660a080850191909152600160a01b909104909116151560c080840191909152600a9093015460e092830152610120840151908401519284015161010085015192850151949e919d50929b5091995097509095509350505050565b60006001600160e01b03198216637965db0b60e01b14806108a857506108a8826133c7565b6000612eac83836117be565b612f2c5760008381526003602090815260408083206001600160a01b03861684529091529020805460ff19166001179055612ee43390565b6001600160a01b0316826001600160a01b0316847f2f8788117e7eff1d82e926ec794901d17c78024a50270940304540a733656f0d60405160405180910390a45060016108a8565b5060006108a8565b6001600160a01b038416612f5e57604051632bfa23e760e11b8152600060048201526024016109d9565b60408051600180825260208201869052818301908152606082018590526080820190925290611013600087848487613417565b612f9b813361346a565b50565b6000816001600160a01b0316836001600160a01b03161015613001576040516bffffffffffffffffffffffff19606085811b8216602084015284901b1660348201526048015b6040516020818303038152906040528051906020012090506108a8565b6040516bffffffffffffffffffffffff19606084811b8216602084015285901b166034820152604801612fe4565b6001600160a01b03841661305957604051632bfa23e760e11b8152600060048201526024016109d9565b6001600160a01b03851661308257604051626a0d4560e21b8152600060048201526024016109d9565b6115568585858585613417565b600061309b83836117be565b15612f2c5760008381526003602090815260408083206001600160a01b0386168085529252808320805460ff1916905551339286917ff6391f5c32d9c69d2a47ea670b442974b53935d1edc7fd64eb21e047a839171b9190a45060016108a8565b6001600160a01b03831661312557604051626a0d4560e21b8152600060048201526024016109d9565b604080516001808252602082018590528183019081526060820184905260a0820190925260006080820181815291929161155691879185908590613417565b6001600160a01b03821661318d5760405162ced3e160e81b8152600060048201526024016109d9565b6001600160a01b03838116600081815260016020908152604080832094871680845294825291829020805460ff191686151590811790915591519182527f17307eab39ab6107e8899845ad3d59bd9653f200f220920489ca2b5937696c31910160405180910390a3505050565b6001600160a01b03841661322457604051632bfa23e760e11b8152600060048201526024016109d9565b6001600160a01b03851661324d57604051626a0d4560e21b8152600060048201526024016109d9565b6040805160018082526020820186905281830190815260608201859052608082019092529061327f8787848487613417565b50505050505050565b60006132948484612f9e565b60008181526004602052604081208054929350906132b183614186565b9091555050600081815260066020908152604080832080546001818101835591855283852001869055848452600490925290912054906132f290600a614344565b81106133475782846001600160a01b0316866001600160a01b03167f418f21bd66d0c989d0098c475bdc7516c4eb0b36a52dac134e867cce21bd485a8460405161333e91815260200190565b60405180910390a45b600a8110158015613367575060008281526005602052604090205460ff16155b156115565760008281526005602052604090819020805460ff19166001179055516001600160a01b0380861691908716907f9f4825431ffd388202348e210ce1ecf450b275d9c8c2c8d8a70316deb85a0e0f9061154d9085815260200190565b60006001600160e01b03198216636cdb3d1360e11b14806133f857506001600160e01b031982166303a24d0760e21b145b806108a857506301ffc9a760e01b6001600160e01b03198316146108a8565b613423858585856134a3565b6001600160a01b03841615611556578251339060010361345c57602084810151908401516134558389898585896136c0565b5050611013565b6110138187878787876137e4565b61347482826117be565b6119d25760405163e2517d3f60e01b81526001600160a01b0382166004820152602481018390526044016109d9565b80518251146134d25781518151604051635b05999160e01b8152600481019290925260248201526044016109d9565b3360005b83518110156135e1576020818102858101820151908501909101516001600160a01b03881615613589576000828152602081815260408083206001600160a01b038c16845290915290205481811015613562576040516303dee4c560e01b81526001600160a01b038a1660048201526024810182905260448101839052606481018490526084016109d9565b6000838152602081815260408083206001600160a01b038d16845290915290209082900390555b6001600160a01b038716156135ce576000828152602081815260408083206001600160a01b038b168452909152812080548392906135c89084906143ae565b90915550505b5050806135da90614186565b90506134d6565b5082516001036136625760208301516000906020840151909150856001600160a01b0316876001600160a01b0316846001600160a01b03167fc3d58168c5ae7397731d063d5bbf3d657854427343f4c083240f7aacaa2d0f628585604051613653929190918252602082015260400190565b60405180910390a45050611556565b836001600160a01b0316856001600160a01b0316826001600160a01b03167f4a39dc06d4c0dbc64b70af90fd698a233a518aa5d07e595d983b8c0526c8f7fb86866040516136b19291906143c1565b60405180910390a45050505050565b6001600160a01b0384163b156110135760405163f23a6e6160e01b81526001600160a01b0385169063f23a6e619061370490899089908890889088906004016143ef565b6020604051808303816000875af192505050801561373f575060408051601f3d908101601f1916820190925261373c91810190614434565b60015b6137a8573d80801561376d576040519150601f19603f3d011682016040523d82523d6000602084013e613772565b606091505b5080516000036137a057604051632bfa23e760e11b81526001600160a01b03861660048201526024016109d9565b805160208201fd5b6001600160e01b0319811663f23a6e6160e01b1461327f57604051632bfa23e760e11b81526001600160a01b03861660048201526024016109d9565b6001600160a01b0384163b156110135760405163bc197c8160e01b81526001600160a01b0385169063bc197c81906138289089908990889088908890600401614451565b6020604051808303816000875af1925050508015613863575060408051601f3d908101601f1916820190925261386091810190614434565b60015b613891573d80801561376d576040519150601f19603f3d011682016040523d82523d6000602084013e613772565b6001600160e01b0319811663bc197c8160e01b1461327f57604051632bfa23e760e11b81526001600160a01b03861660048201526024016109d9565b80356001600160a01b03811681146138e457600080fd5b919050565b600080604083850312156138fc57600080fd5b613905836138cd565b946020939093013593505050565b6001600160e01b031981168114612f9b57600080fd5b60006020828403121561393b57600080fd5b813561394681613913565b9392505050565b60008083601f84011261395f57600080fd5b5081356001600160401b0381111561397657600080fd5b60208301915083602082850101111561398e57600080fd5b9250929050565b600080600080600080608087890312156139ae57600080fd5b86356001600160401b03808211156139c557600080fd5b6139d18a838b0161394d565b9098509650602089013595506040890135945060608901359150808211156139f857600080fd5b50613a0589828a0161394d565b979a9699509497509295939492505050565b600060208284031215613a2957600080fd5b613946826138cd565b600060208284031215613a4457600080fd5b5035919050565b6000815180845260005b81811015613a7157602081850181015186830182015201613a55565b506000602082860101526020601f19601f83011685010191505092915050565b6020815260006139466020830184613a4b565b60008060408385031215613ab757600080fd5b613ac0836138cd565b9150613ace602084016138cd565b90509250929050565b600081518084526020808501945080840160005b83811015613b0757815187529582019590820190600101613aeb565b509495945050505050565b6020815260006139466020830184613ad7565b634e487b7160e01b600052604160045260246000fd5b604051601f8201601f191681016001600160401b0381118282101715613b6357613b63613b25565b604052919050565b60006001600160401b03821115613b8457613b84613b25565b5060051b60200190565b600082601f830112613b9f57600080fd5b81356020613bb4613baf83613b6b565b613b3b565b82815260059290921b84018101918181019086841115613bd357600080fd5b8286015b84811015613bee5780358352918301918301613bd7565b509695505050505050565b600082601f830112613c0a57600080fd5b81356001600160401b03811115613c2357613c23613b25565b613c36601f8201601f1916602001613b3b565b818152846020838601011115613c4b57600080fd5b816020850160208301376000918101602001919091529392505050565b600080600080600060a08688031215613c8057600080fd5b613c89866138cd565b9450613c97602087016138cd565b935060408601356001600160401b0380821115613cb357600080fd5b613cbf89838a01613b8e565b94506060880135915080821115613cd557600080fd5b613ce189838a01613b8e565b93506080880135915080821115613cf757600080fd5b50613d0488828901613bf9565b9150509295509295909350565b60008060408385031215613d2457600080fd5b82359150613ace602084016138cd565b60008060408385031215613d4757600080fd5b82356001600160401b0380821115613d5e57600080fd5b818501915085601f830112613d7257600080fd5b81356020613d82613baf83613b6b565b82815260059290921b84018101918181019089841115613da157600080fd5b948201945b83861015613dc657613db7866138cd565b82529482019490820190613da6565b96505086013592505080821115613ddc57600080fd5b50613de985828601613b8e565b9150509250929050565b803580151581146138e457600080fd5b600080600060608486031215613e1857600080fd5b613e21846138cd565b9250613e2f602085016138cd565b9150613e3d60408501613df3565b90509250925092565b600080600060608486031215613e5b57600080fd5b505081359360208301359350604090920135919050565b60008060408385031215613e8557600080fd5b613e8e836138cd565b9150613ace60208401613df3565b6000610120808352613eb08184018d613a4b565b90508a60208401528281036040840152613eca818b613a4b565b98151560608401525050608081019590955292151560a085015260c084019190915260e0830152610100909101529392505050565b60008060408385031215613f1257600080fd5b50508035926020909101359150565b60006101808e8352806020840152613f3b8184018f613a4b565b90508c60408401528b60608401528281036080840152613f5b818c613a4b565b99151560a0840152505060c081019690965260e08601949094526101008501929092526001600160a01b031661012084015215156101408301526101609091015295945050505050565b600080600060608486031215613fba57600080fd5b613fc3846138cd565b95602085013595506040909401359392505050565b600080600080600060a08688031215613ff057600080fd5b613ff9866138cd565b9450614007602087016138cd565b9350604086013592506060860135915060808601356001600160401b0381111561403057600080fd5b613d0488828901613bf9565b60c08152865160c0820152600060208801516101808060e0850152614065610240850183613a4b565b915060408a0151610100818187015260608c01519150610120828188015260808d0151925061014060bf1988870301818901526140a28685613a4b565b955060a08e015193506101606140bb818a018615159052565b60c08f0151868a015260e08f01516101a08a0152838f01516101c08a0152828f015195506140f56101e08a01876001600160a01b03169052565b908e015115156102008901529c909c01516102208701525050506001600160a01b039790971660208301525093151560408501526060840192909252608083015260a090910152919050565b858782376000868201868152856020820152838560408301376000930160400192835250909695505050505050565b634e487b7160e01b600052601160045260246000fd5b60006001820161419857614198614170565b5060010190565b600181811c908216806141b357607f821691505b6020821081036141d357634e487b7160e01b600052602260045260246000fd5b50919050565b601f82111561107957600081815260208120601f850160051c810160208610156142005750805b601f850160051c820191505b818110156110135782815560010161420c565b81516001600160401b0381111561423857614238613b25565b61424c81614246845461419f565b846141d9565b602080601f83116001811461428157600084156142695750858301515b600019600386901b1c1916600185901b178555611013565b600085815260208120601f198616915b828110156142b057888601518255948401946001909101908401614291565b50858210156142ce5787850151600019600388901b60f8161c191681555b5050505050600190811b01905550565b6020808252601390820152721b185b9908191bd95cc81b9bdd08195e1a5cdd606a1b604082015260600190565b80820281158282048414176108a8576108a8614170565b60008261433f57634e487b7160e01b600052601260045260246000fd5b500490565b818103818111156108a8576108a8614170565b634e487b7160e01b600052603260045260246000fd5b60208082526021908201527f5472616e73616374696f6e20626c6f636b65643a20666c6167676564207061696040820152603960f91b606082015260800190565b808201808211156108a8576108a8614170565b6040815260006143d46040830185613ad7565b82810360208401526143e68185613ad7565b95945050505050565b6001600160a01b03868116825285166020820152604081018490526060810183905260a06080820181905260009061442990830184613a4b565b979650505050505050565b60006020828403121561444657600080fd5b815161394681613913565b6001600160a01b0386811682528516602082015260a06040820181905260009061447d90830186613ad7565b828103606084015261448f8186613ad7565b905082810360808401526144a38185613a4b565b9897505050505050505056fe43f25613eb2f15fb17222a5d424ca2655743e71265d98e4b93c05e5fb589ecde7a9ccc5b1698a0f01adbb41aff4e234681b3d8c2057881ef2a5be48a9b672c6cf8cd32ed93fc2f9fc78152a14807c9609af3d99c5fe4dc6b106a801aaddfe90ea2646970667358221220beaa381a6ab1dbde6d150ed8094eeedfb65e293db7750672ca62ad09875d603064736f6c63430008140033",
  "linkReferences": {},
  "deployedLinkReferences": {}
}